:04000000A5EF0AF06E
:10080000002564204320202020002D202564204343
:03081000200000C5
:100814000450800B0D6E04500424136E03AE15EFC8
:1008240004F017EF04F018EF04F013801350D8B459
:100834001EEF04F020EF04F033EF04F01328D8A4E3
:1008440026EF04F028EF04F030EF04F0000E016E00
:10085400000E026E000E036E000E046E038E3BEF5C
:1008640004F0000E016E000E026E000E036E000E08
:10087400046E0850800B0D1A08500824126E07AE3F
:1008840046EF04F048EF04F049EF04F012801250F0
:10089400D8B44FEF04F051EF04F064EF04F01228E1
:1008A400D8A457EF04F059EF04F061EF04F0000E00
:1008B400056E000E066E000E076E000E086E078EA3
:1008C4006CEF04F0000E056E000E066E000E076E4F
:1008D400000E086E1250D8B472EF04F074EF04F0F6
:1008E4007CEF04F01350D8A47AEF04F07CEF04F00A
:1008F40086EF04F0000E016E000E026E000E036E11
:10090400000E046E1EEF06F007500102F3CF18F03C
:10091400F4CF19F018500E6E0F6A106A116A19504C
:10092400146E156A166A176A06500202F3CF18F09D
:10093400F4CF19F018500E26000E0F2210221122A7
:1009440019501426000E15221622172205500302F0
:10095400F3CF18F0F4CF19F018500E26000E0F2222
:100964001022112219501426000E152216221722C5
:1009740010C011F00FC010F00EC00FF00E6A055039
:100984000202F3CF18F0F4CF19F018500E261950C4
:100994000F22000E1022000E112206500102F3CF86
:1009A40018F0F4CF19F018500E2619500F22000E2B
:1009B4001022000E112210C011F00FC010F00EC052
:1009C4000FF00E6A05500102F3CF18F0F4CF19F0BE
:1009D40018500E2619500F22000E1022000E11225C
:1009E40007500202F3CF18F0F4CF19F01850142670
:1009F40019501522000E1622000E1722065003026B
:100A0400F3CF18F0F4CF19F018501426195015220A
:100A1400000E1622000E172207500302F3CF18F01F
:100A2400F4CF19F01850096E19500A6E0B6A0C6A4B
:100A34000BC00CF00AC00BF009C00AF0096A095097
:100A440014260A5015220B5016220C5017220EC0E1
:100A540009F00FC00AF010C00BF011C00CF0190E11
:100A640039EF05F0D8900C320B320A320932E82EF5
:100A740034EF05F0095014260A5015220B501622A3
:100A84000C50172210C011F00FC010F00EC00FF060
:100A94000E6A125013C009F00A6A0926000E0A22CF
:100AA400820E0924186EFF0E0A20196E6FEF05F0EE
:100AB400D890143615361636173611AE64EF05F095
:100AC40066EF05F067EF05F01480D8900E360F3608
:100AD400103611361806D8A0190616AE74EF05F0B4
:100AE40076EF05F05AEF05F0000E126E11AE7DEFB1
:100AF40005F07FEF05F0A3EF05F0FF0E0E14096E6D
:100B0400FF0E0F140A6EFF0E10140B6E7F0E1114DD
:100B14000C6E09500A100B100C10D8B494EF05F0A9
:100B240096EF05F09AEF05F0010E126EA3EF05F0B3
:100B340014A09FEF05F0A1EF05F0A3EF05F096EFE9
:100B440005F01250D8B4A9EF05F0ABEF05F0CFEFE4
:100B540005F0010E1426000E15221622172217A0E6
:100B6400B6EF05F0B8EF05F0CFEF05F014C009F0CB
:100B740015C00AF016C00BF017C00CF00C340C3280
:100B84000B320A32093209C014F00AC015F00BC046
:100B940016F00CC017F0184A192A19BEDAEF05F03E
:100BA400195008E11828D8A0DAEF05F0DCEF05F0B9
:100BB400E6EF05F0000E146E000E156E800E166E34
:100BC4007F0E176E14EF06F019BEF3EF05F01950FF
:100BD40006E11804D8B0F1EF05F0F3EF05F0FFEFEC
:100BE40005F0000E146E000E156E000E166E000E4B
:100BF400176E000E0D6E14EF06F018C013F0FF0E02
:100C04001416FF0E15167F0E1616000E171613A0D7
:100C14000EEF06F010EF06F011EF06F0168ED890E6
:100C24001330176E0D50171214C001F015C002F0E6
:100C340016C003F017C004F012001D50800B2A6E7A
:100C44001D501D24316E1CAE2AEF06F02CEF06F069
:100C54002DEF06F031803150D8B433EF06F035EF84
:100C640006F04AEF06F03128D8A43BEF06F03DEF3A
:100C740006F045EF06F0000E1A6E000E1B6E000E15
:100C84001C6E000E1D6E1C8E000E1D6E52EF06F0C3
:100C9400000E1A6E000E1B6E000E1C6E000E1D6EF2
:100CA4002150800B2A1A21502124326E20AE5DEF90
:100CB40006F05FEF06F060EF06F032803250D8B4F1
:100CC40066EF06F068EF06F07DEF06F03228D8A450
:100CD4006EEF06F070EF06F078EF06F0000E1E6E71
:100CE400000E1F6E000E206E000E216E208E000E70
:100CF400216E85EF06F0000E1E6E000E1F6E000EB4
:100D0400206E000E216E1E501F1020102110D8A43A
:100D14008EEF06F090EF06F0A8EF06F0000E1A6EC4
:100D2400000E1B6E000E1C6E000E1D6E800E1C123B
:100D34007F0E1D122A501D121AC01AF01BC01BF080
:100D44001CC01CF01DC01DF0EBEF07F03150D8A4FF
:100D5400AEEF06F0B0EF06F0BAEF06F0000E1A6E32
:100D6400000E1B6E000E1C6E000E1D6EEBEF07F0E6
:100D7400325031C022F0236A225E000E235A7F0EC5
:100D840022242B6E000E23202C6E1AC026F01BC0CA
:100D940027F01CC028F01DC029F0000E1A6E000EAA
:100DA4001B6E000E1C6E000E1D6E000E2D6E000ECE
:100DB4002E6E000E2F6E000E306E000E326E1BEF84
:100DC40007F03250D8B4E9EF06F0EBEF06F002EF8B
:100DD40007F0D8902636273628362936D8901A3682
:100DE4001B361C361D3630AEFAEF06F0FCEF06F06B
:100DF400FDEF06F01A80D8902D362E362F36303679
:100E04001E50265C1F50275820502858215029581E
:100E1400D8A00FEF07F011EF07F01AEF07F0308CAE
:100E24001E50265E1F50275A2050285A2150295AF6
:100E3400322A190E326421EF07F023EF07F0E3EFB3
:100E440006F02650271028102910D8B42CEF07F0EC
:100E54002EEF07F046EF07F02D8046EF07F0D8900D
:100E64001A361B361C361D3630AE3BEF07F03DEF0D
:100E740007F03EEF07F01A80D8902D362E362F3625
:100E840030362B06D8A02C061CAE4BEF07F04DEFE6
:100E940007F031EF07F0000E326E30AE54EF07F07A
:100EA40056EF07F07AEF07F0FF0E2D14226EFF0EB7
:100EB4002E14236EFF0E2F14246E7F0E3014256E15
:100EC4002250231024102510D8B46BEF07F06DEFD7
:100ED40007F071EF07F0010E326E7AEF07F01AA0F7
:100EE40076EF07F078EF07F07AEF07F06DEF07F091
:100EF4003250D8B480EF07F082EF07F0A6EF07F086
:100F0400010E1A26000E1B221C221D221DA08DEF8D
:100F140007F08FEF07F0A6EF07F01AC022F01BC00E
:100F240023F01CC024F01DC025F0253425322432C2
:100F34002332223222C01AF023C01BF024C01CF03A
:100F440025C01DF02B4A2C2A2CBEB1EF07F02C50E3
:100F540008E12B28D8A0B1EF07F0B3EF07F0BEEFFC
:100F640007F0000E2C6E2B68000E1A6E000E1B6E1E
:100F7400000E1C6E000E1D6E2CBECBEF07F02C5025
:100F840006E12B04D8B0C9EF07F0CBEF07F0D9EF97
:100F940007F0000E2C6E000E2B6E000E1A6E000E63
:100FA4001B6E000E1C6E000E1D6E000E2A6E2BC0F2
:100FB40031F031A0E0EF07F0E2EF07F0E5EF07F0E2
:100FC4001C8EE6EF07F01C9ED89031301D6E9CEF0E
:100FD40006F01200096E0950D8B4F3EF07F0F5EFEC
:100FE40007F017EF08F004BEFCEF07F0FAEF07F084
:100FF40017EF08F001C005F002C006F003C007F0C7
:1010040004C008F0051E061E071E081E052A000E51
:1010140006220722082205C00BF006C00CF007C008
:101024000DF008C00EF01FEF08F001C00BF002C075
:101034000CF003C00DF004C00EF0015002100310B8
:101044000410D8A428EF08F02AEF08F034EF08F0D1
:10105400000E016E000E026E000E036E000E046E92
:10106400C5EF08F0960E0A6E3EEF08F00A2AD890F3
:101074000E320D320C320B32000E0B14056E000EC4
:101084000C14066E000E0D14076EFE0E0E14086E80
:101094000550061007100810D8A453EF08F055EFB8
:1010A40008F038EF08F063EF08F00A2A010E0B2667
:1010B400000E0C220D220E22D8900E320D320C326C
:1010C4000B32000E0B14056E000E0C14066E000E8F
:1010D4000D14076EFF0E0E14086E0550061007104F
:1010E4000810D8A478EF08F07AEF08F057EF08F06A
:1010F40082EF08F00A06D8900B360C360D360E3601
:101104000DBE87EF08F089EF08F091EF08F0020EAA
:101114000A608FEF08F091EF08F07CEF08F00AB056
:1011240096EF08F098EF08F099EF08F00D9ED8902C
:101134000A320AC005F0066A076A086A05C008F0A0
:10114400076A066A056A05500B1206500C1207500E
:101154000D1208500E120950D8B4B3EF08F0B5EFD1
:1011640008F0BDEF08F004BEBCEF08F0BAEF08F0D9
:10117400BDEF08F00E8E0BC001F00CC002F00DC0E4
:1011840003F00EC004F01200353436343C6E3C508B
:10119400D8A4CFEF08F0D1EF08F0DBEF08F0000E91
:1011A400336E000E346E000E356E000E366E48EF50
:1011B40009F033C037F034C038F035C039F036C0E8
:1011C4003AF0200EEBEF08F0D8903A323932383248
:1011D4003732E82EE6EF08F037503B6E358EFF0EBF
:1011E4003316FF0E3416FF0E3516000E3616960E05
:1011F4003C5E3CBE02EF09F000EF09F018EF09F085
:101204003C50800A970FD8B00AEF09F00CEF09F0B0
:101214000EEF09F0D1EF08F0D8903632353234327F
:1012240033323C3E0EEF09F030EF09F01F0E3C6400
:101234001EEF09F020EF09F028EF09F0D1EF08F0D4
:10124400D89033363436353636363C063C50D8A43E
:101254002EEF09F030EF09F022EF09F03B50D8B43B
:1012640036EF09F038EF09F040EF09F0361E351E6D
:10127400341E336C000E34223522362233C033F050
:1012840034C034F035C035F036C036F01200720E7A
:10129400D36E000E0F015E6F000E446E050E436E9A
:1012A400450E076E000E086EC7EC09F0435044105B
:1012B400D8B45FEF09F061EF09F066EF09F0430677
:1012C400D8A0440652EF09F047BE6BEF09F06DEF6A
:1012D40009F052EF09F047503E6E3D6A45503D26F5
:1012E40046503E223DC001F03EC002F0036A046A4B
:1012F400000EECEC07F001C03FF002C040F003C068
:1013040041F004C042F0000E1E6E000E1F6EC80EA7
:10131400206E420E216E000E056E000E066EC80E83
:10132400076E400E086E3FC001F040C002F041C09D
:1013340003F042C004F00AEC04F001C01AF002C049
:101344001BF003C01CF004C01DF01FEC06F01AC013
:1013540033F01BC034F01CC035F01DC036F0C6ECB1
:1013640008F034BEBFEF09F0345009E1330E335CAA
:10137400D8A0BFEF09F0C1EF09F052EF09F0B3ECC8
:101384000AF052EF09F000EF00F095EC0AF04E0E6F
:1013940010EC0AF0000E10EC0AF0000E10EC0AF04B
:1013A4007F0E10EC0AF095EC0AF0CC0E10EC0AF06B
:1013B400440E10EC0AF043EC0AF0FF0AD8B4E5EF4F
:1013C40009F0E7EF09F0DDEF09F0010E026EF40E0B
:1013D400016E70EC0AF095EC0AF0CC0E10EC0AF0F9
:1013E400BE0E10EC0AF043EC0AF0096E0A6A07C05C
:1013F400D9FF08C0DAFF09C0DEFF0AC0DDFF43ECF5
:101404000AF0096E0A6A20EE02F00750D926085045
:10141400DA2209C0DEFF0AC0DDFF1200036E958ADE
:10142400000E046E04C001F0010E026E012A1DEFCD
:101434000AF0D8900236012E1BEF0AF00250031472
:101444000009D8B428EF0AF02AEF0AF033EF0AF0C3
:10145400959A839A00D0958A280EE82EFED739EF04
:101464000AF0959A839A280EE82EFED7958A042AC4
:10147400070E046440EF0AF042EF0AF014EF0AF09A
:101484001200000E036E958A000E046E959A839ADC
:1014940000D000D0958A83AA52EF0AF054EF0AF0E4
:1014A40062EF0AF004C001F0010E026E012A5DEF42
:1014B4000AF0D8900236012E5BEF0AF002500312B4
:1014C400280EE82EFED7042A070E04646CEF0AF0F7
:1014D4006EEF0AF048EF0AF003501200000E046E9B
:1014E400000E036E89EF0AF0000E066E000E056E04
:1014F400054A062A065009E1510E055CD8A085EF7D
:101504000AF087EF0AF07AEF0AF0034A042A03503C
:10151400015C04500258D8B092EF0AF094EF0AF03C
:1015240076EF0AF01200959A839AC00E00D0E82E46
:10153400FDD7958A280EE82EFED78350C00E00D022
:10154400E82EFDD71200000EF86E080EF76E0001AB
:1015540049EF09F0000E0F015B6F000E926E808060
:081564001200ACEC0AF01200C9
:020000040020DA
:08000000FFFFFFFFFFFFFFFF00
:020000040030CA
:0E00000000225F3CFFD385FF0FC00FE00F40D2
:00000001FF
