:0400000085EF3FF059
:107F0A00000EF86E00018AEF3FF0000E936E000E2D
:107F1A00C26E0F0EC16E740ED36E870ED56E000E32
:107F2A00D76E000ED66E000E066E000E056EAAEF14
:107F3A003FF005C001F006C002F0B7EC3FF0054A79
:107F4A00062A000ED76E000ED66E840ED65C1E0E62
:107F5A00D758D8A0B3EF3FF0B5EF3FF09EEF3FF010
:107F6A0000EF00F0D5EF3FF080908180FFEF3FF007
:107F7A0081908182FFEF3FF081928184FFEF3FF091
:107F8A0081948186FFEF3FF081968188FFEF3FF071
:107F9A008198818AFFEF3FF0819A8082FFEF3FF05C
:107FAA0001C003F002C004F00450000AD8B4E0EFA4
:107FBA003FF0FFEF3FF00350000AD8B4B9EF3FF0AB
:107FCA00010AD8B4BDEF3FF0030AD8B4C1EF3FF0BD
:107FDA00010AD8B4C5EF3FF0070AD8B4C9EF3FF099
:107FEA00010AD8B4CDEF3FF0030AD8B4D1EF3FF07D
:067FFA00FFEF3FF0120052
:020000040020DA
:08000000FFFFFFFFFFFFFFFF00
:020000040030CA
:0E00000000255F3FFFD385FF0FC00FE00F40CC
:00000001FF
